:020000040800F2
:10000000080500209D01000897130008451100080D
:1000100095130008190600081517000800000000D5
:100020000000000000000000000000000F140008A5
:100030001B060008000000000D1400081114000841
:10004000B7010008B7010008B7010008B7010008B0
:10005000B7010008B7010008B7010008B7010008A0
:10006000B7010008B7010008B7010008B701000890
:10007000B7010008B7010008B7010008B701000880
:10008000B7010008B7010008B7010008B701000870
:10009000B7010008B7010008B7010008B701000860
:1000A000B7010008B7010008B7010008B701000850
:1000B000B7010008B7010008B7010008B701000840
:1000C000B7010008B7010008B7010008B701000830
:1000D000B7010008B7010008B7010008B701000820
:1000E000B7010008B7010008B7010008B701000810
:1000F000B7010008B7010008B7010008B701000800
:10010000B7010008B7010008B7010008B7010008EF
:10011000B7010008B7010008B7010008B7010008DF
:10012000B7010008B7010008B7010008B7010008CF
:10013000B7010008B7010008B7010008B7010008BF
:10014000B7010008B7010008B7010008B7010008AF
:10015000B7010008B7010008B7010008B70100089F
:10016000B7010008B7010008B7010008B70100088F
:10017000B7010008B7010008B7010008000000003F
:10018000B7010008B7010008DFF80CD000F032FA20
:100190000048004709180008080500200648804765
:1001A00006480047FEE7FEE7FEE7FEE7FEE7FEE75C
:1001B000FEE7FEE7FEE7FEE791140008890100086C
:1001C0002DE9F05F0546002092469B46884606468C
:1001D000814640241BE0284641464746224600F01F
:1001E0008AF953465A46C01A914110D3114618460F
:1001F000224600F071F92D1A67EB01084F4622469E
:100200000120002100F068F917EB00094E41201E83
:10021000A4F10104DFDC484631462A464346BDE8E6
:10022000F09FD2B201E000F8012B491EFBD27047CB
:100230000022F6E710B513460A4604461946FFF7B2
:10024000F0FF204610BD2DE9FE4F804681EA0300F5
:10025000C00F0C46009021F0004123F00045B8EBA0
:100260000200A94105D24046214690461C460B4655
:10027000024623F00040104347D0270DC7F30A0081
:10028000C3F30A510290401A019040286BDAC3F37D
:10029000130040F4801B0098924620B10023D2EB5B
:1002A000030A63EB0B0B01985946C0F1400250461C
:1002B00000F012F906460D4650465946019A00F0E4
:1002C0002AF910EB08006141002487EA115284EA00
:1002D000E7731A4340D0009A62B3019A012A4FEAA9
:1002E000075215DC001B61EB02014FF0004202EAED
:1002F0000752CDE90042001C41F5801132462B46E1
:1003000000F02AF903B0BDE8F08F40462146F9E736
:10031000001B61EB0201001C41F5801300185B41DA
:100320002018A2F5001747EB030140EAD570B61973
:100330006D4111E06D084FEA360645EAC0754FEA97
:100340000752001B61EB0201001C41F580114908B6
:100350004FEA30000019514132462B4603B0BDE848
:10036000F04F00F0EAB80098012240000023D0EBE3
:10037000020263EBE073009821464FEAE074B8EBA9
:10038000000061EB0401E9E783F000435BE781F0E3
:10039000004158E72DE9FE4F81EA030404F00044D0
:1003A00021F0004100944FF0000B23F0004350EA8D
:1003B00001045ED052EA03045BD0C3F30A54C1F3D4
:1003C0000A552C44A4F2F3340194A0FB0254C1F367
:1003D000130141F48011C3F3130343F4801301FBB1
:1003E000024400FB034E840A970A44EA815447EA18
:1003F0008357A4FB076802958D0A05FB07854FEA22
:10040000932C04FB0C542705029D4FEA065847EA3B
:100410001637B5EB08056EEB070C870E920E47EA10
:10042000811742EA8312A7FB0201B6EB0B0164EBD2
:1004300000042B0D43EA0C335E1844EB1C50DA46E3
:100440005146E7FB0201C5F313044FEA0B3343EABD
:1004500014534FEA0432019C43EA0603A4F10C044E
:100460000294009CCDE900B400F076F803B0BDE83A
:10047000F08F00200146F9E70EB5C10F80EAE07069
:100480000844CA07002140F233438DE80E000A46B3
:100490000B4600F061F803B000BD70B5C1F30A521D
:1004A00001F000450024C1F3130140F2FF3341F491
:1004B00080119A4201DA002070BD40F233439A4223
:1004C000A2F2334203DC524200F015F800E0904003
:1004D0002C43F1D0404270BD202A04DB203A00FAC0
:1004E00002F1002070479140C2F1200320FA03F38B
:1004F000194390407047202A04DB203A21FA02F089
:100500000021704721FA02F3D040C2F1200291404D
:10051000084319467047202A06DBCB17203A41FAD8
:1005200002F043EAE07306E041FA02F3D040C2F180
:100530002002914008431946704710B5141E73F10C
:10054000000408DA401C41F1000192185B411A4393
:1005500001D120F0010010BD2DE9F04D92469B46DF
:1005600011B1B1FA81F202E0B0FA80F22032904685
:10057000FFF7B2FF04460F4640EA0A0041EA0B01CA
:1005800053465A46084313D0114653EA010019D086
:10059000C8F140025046FFF7AEFF05460E465046F2
:1005A00059464246FFF798FF084305D0012004E072
:1005B00020463946BDE8F08D0020054346EAE07646
:1005C0002C4337430A986305E40AA0EB0800002295
:1005D000FD0A44EA47540A3002D500200146E9E703
:1005E000010510196941DDE9084500196941BDE8B7
:1005F000F04DA2E7064C074D06E0E06840F001032D
:1006000094E8070098471034AC42F6D3FFF7C0FDDA
:10061000C4180008E4180008FEE7704770B50446E7
:1006200000F0F4F80546601C02D004480078044449
:1006300000F0ECF8401BA042FAD370BD7800002017
:100640002DE9F84F00224FF0010803254FF00F0E5F
:100650000B6808FA02F42340A3426ED14E68012EC3
:1006600005D0022E03D0112E01D0122E12D1866891
:100670004FEA420C05FA0CF7BE43CF6807FA0CF7B5
:10068000374387604668A6430C79C4F3001494404E
:1006900034434460C668570005FA07FC8C6826EAB4
:1006A0000C06BC403443C4604C68022C01D0122CB0
:1006B00013D1D40800EB8404A346D4F82090540747
:1006C0004FEAD46A0EFA0AF629EA06090E6906FA12
:1006D0000AF646EA0906CBF8206006680C7926EA95
:1006E0000C0604F00304BC40344304604C68E4008E
:1006F00065D5364C266846F480462660246822F08C
:10070000030604F480440094314C3444A446D4F8E5
:1007100008489607370F0EFA07F6B4432D4EB0423D
:1007200001D1002624E02C4EB04201D101261FE069
:100730002A4EB04202D102261AE040E0284EB042D2
:1007400001D1032614E0274EB04201D104260FE068
:10075000254EB04201D105260AE0244EB04201D117
:10076000062605E0224EB04201D1072600E0082609
:10077000BE402643CCF808681E4E34684F689C4340
:10078000FF0300D51C4334601A4C241D26684F68B3
:100790009E43BF0300D51E432660164E08363468BC
:1007A0004F689C43FF0200D51C433460114E0C3649
:1007B00034684F689C43BF0200D51C433460521C10
:1007C000102AFFF445AFBDE8F88F0000443802401E
:1007D00000300140000002400004024000080240D6
:1007E000000C0240001002400014024000180240B9
:1007F000001C0240003C01400069084000D001207C
:1008000070470AB1816170470904FBE701488068BD
:100810007047000078000020024881680278114487
:1008200081607047780000200B4810B5016841F4E2
:1008300000710160016841F480610160016841F468
:1008400080710160032000F061F8002000F006F8DC
:1008500000F024F8002010BD003C024070B50D4DA2
:1008600004464FF47A712878B1FBF0F00A49096820
:10087000B1FBF0F000F0D6FA48B9102C07D20022F4
:100880002146501E00F022F800206C6070BD01204F
:1008900070BD000078000020840000200A4808B5E0
:1008A000016841F480410160006800F480400090DC
:1008B0000548001F016841F080510160006800F0A8
:1008C0008050009008BD000044380240F0B40E4B48
:1008D0001B680C46C3F30223C3F10705042D00D99E
:1008E0000425191D072901D2002300E0DB1E012683
:1008F00006FA05F1491E214099409E40761E164099
:100900003143F0BC00F007BF0CED00E0064900F0F9
:10091000070208684FF6FF03184040EA0220034A26
:1009200010430860704700000CED00E00000FA057D
:100930002DE9F0470E46050065D0DFF81481D8F8A0
:100940000000F7B200F00F00B04207D288F8007044
:10095000D8F8000000F00F00B04254D128683D4C98
:10096000810712D5400703D5206840F4E05020608D
:100970002878000703D5206840F460402060206894
:10098000A96820F0F000084320602878C0072DD027
:10099000304968680839012812D0022813D003288A
:1009A00011D00968890700292DDA216821F0030197
:1009B00001432160FFF72AFF814641F2883A0EE0A9
:1009C00009688903EFE709688901ECE7FFF71EFF73
:1009D000A0EB0901514502D90320BDE8F08720684A
:1009E000696800F00C00B0EB810FEFD1D8F800106F
:1009F000404601F00F01B14207D90770006800F0CE
:100A00000F00B04201D00120E7E72878400705D564
:100A10002068E96820F4E050084320602878000747
:100A200006D52068296920F4604040EAC1002060B2
:100A300000F018F82168084AC1F30311515CC8405E
:100A40000649086006480068FFF708FF0020C4E771
:100A5000003C024008380240B4180008840000201E
:100A60007C000020154810B5006810F00C021448F6
:100A700013D01449042A0FD0082A0ED10F4C241F7A
:100A80002268236802F03F025B0207D52068C0F3AA
:100A90008810A0FB010106E0084610BD2168C1F3E3
:100AA0008811A1FB00010023FFF78AFB2168C1F335
:100AB0000141491C4900B0FBF1F010BD083802406B
:100AC0000024F40040787D012DE9F84F04006ED039
:100AD0002078DFF83C93C007A9F104054AD009F15A
:100AE00004000168C1F38101012908D00068C0F346
:100AF000810002280AD1D9F80000400206D52868F2
:100B0000800337D560680028E1D033E06068B0F535
:100B1000803F10D0B0F5A02F286810D020F480308E
:100B20002860286820F4802028606068A8B1FFF75A
:100B30006DFE06460DE0286840F48030F4E740F48E
:100B400080202860F7E700BFFFF760FE801B642865
:100B500073D828688003F7D50CE0FFF757FE0646E8
:100B600005E000BFFFF752FE801B6428F0D828681C
:100B70008003F7D42078DFF89C8280074FF0000ACA
:100B80003ED5A348001D016811F00C0F08D0006885
:100B9000C0F3810002280BD1D9F80000400207D42D
:100BA0002868800716D5E068012800D112E02BE103
:100BB000E068B8B10120C8F80000FFF727FE06463C
:100BC00005E000BFFFF722FE801B0228C0D828687E
:100BD0008007F7D52868216920F0F80040EAC100B5
:100BE00028600DE0C8F800A0FFF710FE064604E0FC
:100BF000FFF70CFE801B02281FD828688007F7D457
:100C00002078000722D5824E83486169703671B121
:100C100001210160FFF7FAFD074604E0FFF7F6FD4A
:100C2000C01B022809D830688007F7D50EE0C0F84D
:100C300000A0FFF7EBFD074605E082E0FFF7E6FDC9
:100C4000C01B02287DD830688007F7D42078400781
:100C500068D5DFF8BCB100270BF13C0BDBF80000D6
:100C6000C0000BD4DBF8001041F08051CBF800102D
:100C7000DBF80000012700F080500090674E3068DC
:100C8000C00510D4306840F480703060FFF7BEFDBE
:100C9000009005E0FFF7BAFD0099401A022850D8ED
:100CA0003068C005F6D55A4EA0686C3601280FD0C2
:100CB0000528306810D020F001003060306820F046
:100CC00004003060A068B8B1FFF7A0FD00900FE00D
:100CD000306840F00100F4E740F004003060F7E7CE
:100CE000FFF794FD0099411A41F28830814266D89D
:100CF00030688007F4D50EE0FFF788FD009007E02C
:100D0000FFF784FD0099411A41F28830814256D89C
:100D100030688007F4D42FB1DBF8001021F0805147
:100D2000CBF80010A069C8B33949091D0968C1F39F
:100D3000810102294AD00228504607D0C8F8600035
:100D400000E03CE0FFF762FD04463BE04746C8F8A0
:100D50006000FFF75BFD064605E000BFFFF756FDAC
:100D6000801B02282BD828688001F7D4D4E907011A
:100D70000843A16A2A4A490802EB0141626A41EA32
:100D80008211084394F82C1040EA0161C9F8001060
:100D900001203866FFF73AFD044606E036E000BF62
:100DA000FFF734FD001B022809D828688001F7D519
:100DB0002CE000BFFFF72AFD001B022802D9032008
:100DC000BDE8F88F28688001F4D41FE00128F7D02F
:100DD000D9F80000E26900F48001914214D1226A3E
:100DE00000F03F0191420FD147F6C071626A0140A5
:100DF000914209D1A26A00F44031914204D1E16AE2
:100E000000F07060884201D00120D9E70020D7E7C8
:100E10000438024000004742800E47420070004004
:100E20000000FFFF10B5401EB0F1807F01D301200C
:100E300010BD4FF0E02460610F21601700F06BFCE3
:100E40000020A06107202061002010BD10B590F89F
:100E50003C20012A22D0012280F83C20CA688C68FC
:100E600022F4407222434C6822F4806222430C68D0
:100E700022F4006222430C6922F4805222434C691E
:100E800022F400522243C969002322F480420A431B
:100E900001684A6480F83C30002010BD022010BD7B
:100EA00070B590F83C20012A32D0012480F83C40F3
:100EB000022280F83D2003685A689D6822F070067F
:100EC0000A6832435A60134B02689A4214D0B2F156
:100ED000804F11D0104B9A420ED0104B9A420BD03B
:100EE0000F4B9A4208D00F4B9A4205D00E4B9A42B4
:100EF00002D00E4B9A4204D1496825F08003194371
:100F0000916080F83D40002180F83C10084670BD9B
:100F1000022070BD000001400004004000080040B5
:100F2000000C004000040140004001400018004057
:100F300010B586B0044614216846FFF779F9236896
:100F4000174C002117480222A34211D1036843F035
:100F500010030360006800F010000590100200907C
:100F6000CDE901210120CDE9031069460E4812E0C8
:100F70000E4CA34211D1036843F0040303600068E0
:100F800000F00400059040200090CDE90121CDE95A
:100F9000031269460648FFF753FB06B010BD000078
:100FA00000000140303802400010024000040040C0
:100FB0000008024070B5044690F83C000D46012838
:100FC0000DD0012684F83C60022084F83D0042B137
:100FD000042A18D0082A2AD00C2A4DD139E0022040
:100FE00070BD206800F0D4FA2068816941F00801E2
:100FF00081612068816921F0040181612068816933
:101000002A69114311E0206800F0F2FA2068816932
:1010100041F4006181612068816921F4806181610E
:10102000206881692A6941EA0221816124E02068FF
:1010300000F014FB2068C16941F00801C16120681B
:10104000C16921F00401C1612068C1692A691143A5
:1010500011E0206800F036FB2068C16941F40061AE
:10106000C1612068C16921F48061C1612068C169E2
:101070002A6941EA0221C16184F83D60002084F8B8
:101080003C0070BD10B5040003D094F83D0010B1D1
:1010900007E0012010BD002084F83C00204600F04D
:1010A0000DF8022084F83D00211D206800F0FEF9B3
:1010B000012084F83D00002010BD000008B5006844
:1010C0000C49884208D10C48016841F001010160D7
:1010D000006800F001000BE00849884209D1064889
:1010E000001F016841F002010160006800F0020089
:1010F000009008BD00000140443802400004004058
:1011000010B504460068012200F034FA0B4920684B
:10111000884202D00A49884203D1416C41F400411F
:1011200041642068816801F00701062903D0016845
:1011300041F001010160002010BD000000000140ED
:1011400000040140FEE700002DE9F04387B01421C0
:101150006846FFF76DF827480024016841F08001D8
:101160000160016801F080010591016841F0010111
:101170000160016801F001010591016841F0100171
:101180000160016801F010010591016841F004015E
:1011900001600068DFF8608000F004004FF44066F2
:1011A0000590002231464046FFF72BFBDFF84C90BC
:1011B000F710002239464846FFF723FBFF200125A0
:1011C0008DE8310069460E48FFF73AFA0096CDE9FE
:1011D0000154694640460394FFF732FA0097CDE97F
:1011E0000154694648460394FFF72AFA07B0BDE860
:1011F000F083000030380240001002400008024036
:101200000000024010B592B000240F941C2108A8E1
:101210001094FFF70DF820216846FFF709F82048E1
:101220001E4901604F21C0E901146321C0E9031484
:101230008021C0E90541FFF725FF08B172B6FEE73E
:101240000F940FA916481094FFF72AFE08B172B642
:10125000FEE76020CDE908040A940B940C940D94E9
:10126000002208A90E480E94FFF7A4FE08B172B63A
:10127000FEE700944FF40050CDE90440029401943D
:101280000394694606480794FFF7E0FD08B172B67B
:10129000FEE70348FFF74CFE12B010BD000001400E
:1012A0008800002010B58AB0002407941C216846ED
:1012B0000894FEF7BDFF1648144901604F21C0E9AC
:1012C00001146321C0E903148461FFF7DBFE08B158
:1012D00072B6FEE7079407A90D480894FFF7E0FDF2
:1012E00008B172B6FEE76020CDE900040294002246
:1012F000694607480494FFF75DFE08B172B6FEE741
:101300000348FFF715FE0AB010BD000000040040BE
:10131000C800002010B500F01DFA1D49D1E91402E3
:10132000104400EBD07040104866486C8B6CC200D3
:101330004FF47A7092FBF0F2DB0093FBF0F302EBD8
:10134000420282F0020283F002031A44CB6C5B007B
:1013500093FBF0F383F002031A448A630B6ECC6DA7
:10136000DB0093FBF0F3E40094FBF0F403EB4303A6
:1013700083F0020384F0020423448C6D640094FB28
:10138000F0F080F002001844C863101A086410BD21
:1013900000000020FEE7FEE72DE9F04188462DED34
:1013A000028BB0EE408AF0EE608A0646FFF7B2FF8D
:1013B000154C606910B90020A066E061D4E90E0107
:1013C00090FBF1F5A561E169206C4718E761A16E1A
:1013D000411A2162A0660846FFF74EF853EC182B1D
:1013E000FEF7D8FF41EC180B754307FB0850FFF7D9
:1013F00043F853EC182BFEF726FFFFF74EF8606119
:10140000BDEC028BBDE8F081000000207047704702
:10141000FFF702BA10B592B030216846FEF708FF18
:1014200014210CA8FEF704FF17480024016841F0BE
:1014300080510160006800F08050119013480168ED
:1014400041F4804101600068069400F480401190EE
:101450000220009001200390102004906846FFF7BE
:1014600033FB08B172B6FEE70F20CDE90C040E94F1
:101470000F9400210CA81094FFF75AFA002801D00D
:1014800072B6FEE712B010BD403802400070004056
:101490000548016841F47001016003494FF00060A4
:1014A000803908607047000088ED00E0F0B5026800
:1014B000254C264D264E274F274B4FF0804CA042FF
:1014C00009D0604507D0A84205D0B04203D0B84249
:1014D00001D0984204D122F0700E4A6842EA0E020E
:1014E000A0421BD0604519D0A84217D0B04215D0F9
:1014F000B84213D0984211D0184DA8420ED0184DC2
:10150000A8420BD0174DA84208D0174DA84205D0CD
:10151000164DA84202D0164DA84203D122F44075C0
:10152000CA682A434D6922F080022A4302608A6811
:10153000C2620A688262A04201D0984201D1096960
:10154000016301214161F0BD000001400004004041
:1015500000080040000C0040000401400040014031
:10156000004401400048014000180040001C0040B9
:101570000020004010B501F01F030121046A9940CA
:101580008C430462016A9A401143016210BD00005D
:10159000F0B5026A22F001020262036A42688469BD
:1015A000124E24F073050C682C4323F002058B685F
:1015B0002B430D4DA84201D0B04205D123F00807BE
:1015C000CB683B4323F00403A84201D0B04205D1CD
:1015D0004D6922F4407215438A692A43426084614E
:1015E000496841630362F0BD00000140000401400E
:1015F000F0B5026A22F010020262026A436884694E
:101600000D6824F4E64444EA05248D6822F02002A3
:1016100042EA05120F4D104EA84201D0B04206D149
:10162000CF6822F0800242EA071222F04002A8426C
:1016300001D0B04207D14D6923F4406343EA8503EA
:101640008D6943EA8503436084614968816302626E
:10165000F0BD00000000014000040140F0B5026A46
:1016600022F480720262026A4368C46922F4007242
:1016700024F073050C68124E2C438D6842EA052253
:101680000E4DA84201D0B04206D1CF6822F40062CC
:1016900042EA072222F48062A84201D0B04207D178
:1016A0004D6923F4405343EA05138D6943EA05135A
:1016B0004360C4614968C1630262F0BD000001403B
:1016C0000004014030B5026A22F480520262046ACA
:1016D0004268C3690D6823F4E64343EA05238D6835
:1016E00024F4005444EA0534084DA84202D0084DC1
:1016F000A84204D14D6922F4804242EA8512426038
:10170000C36149680164046230BD0000000001400B
:1017100000040140FEE70907090E002804DB00F180
:10172000E02080F80014704700F00F0000F1E02086
:1017300080F8141D704702E008C8121F08C1002A73
:10174000FAD170477047002001E001C1121F002A42
:10175000FBD170472DE9F041294C0020294D6064F0
:10176000A064E06420656065A065E065064641F21E
:101770008837206601212846FFF73EF810B9606CD3
:10178000401C606402212846FFF736F810B9A06CAF
:10179000401CA06404212846FFF72EF810B9E06C25
:1017A000401CE06408212846FFF726F810B9206D98
:1017B000401C206510212846FFF71EF810B9606D07
:1017C000401C606520212846FFF716F810B9A06D6F
:1017D000401CA06540212846FFF70EF810B9E06DC7
:1017E000401CE06580212846FFF706F810B9206EFE
:1017F000401C2066761CBE42BCDBBDE8F0810000C8
:1018000000000020000002402DED028BFFF70CF8D5
:10181000FFF700FEFFF798FCFFF7F4FCFFF742FD2F
:1018200000212048FFF76CFC1E4800214038FFF7DC
:1018300067FC1C4E9FED1C8B1D4C00256FF0310882
:10184000A6F140073220FEF7E9FEB0EE480AF0EEBE
:10185000680A02210120FFF79FFDE066206D18B99C
:10186000E06C08B1E5666561606D20B9A06D10B1EE
:10187000E566656109E0E06E322802DD3220E0664F
:1018800003E0404501DAC4F86C80E06E0146323076
:10189000C1F13203C4E90203396848633068436325
:1018A000D0E70000C80000209A9999999999C93FFA
:1018B00000000020000000000000000001020304FE
:1018C00006070809E418000800000020880000004E
:1018D000361700086C1900088800002080040000FA
:1018E0004617000800000000000000000000000093
:1018F00000000000A08601000000000000000000C1
:1019000000000000000000000000000000000000D7
:1019100000000000000000000000000000000000C7
:1019200000000000000000000000000000000000B7
:1019300000000000000000000000000000000000A7
:101940000000000000000000000000000000000097
:101950000000000000000000000000000100000086
:0C19600010000000000000000024F40053
:040000050800018965
:00000001FF
